{
  "_format": "hh-sol-artifact-1",
  "contractName": "FixedRateExchange",
  "sourceName": "contracts/pools/fixedRate/FixedRateExchange.sol",
  "abi": [
    {
      "inputs": [
        {
          "internalType": "address",
          "name": "_router",
          "type": "address"
        },
        {
          "internalType": "address",
          "name": "_opcCollector",
          "type": "address"
        }
      ],
      "stateMutability": "nonpayable",
      "type": "constructor"
    },
    {
      "anonymous": false,
      "inputs": [
        {
          "indexed": true,
          "internalType": "bytes32",
          "name": "exchangeId",
          "type": "bytes32"
        },
        {
          "indexed": false,
          "internalType": "address",
          "name": "to",
          "type": "address"
        },
        {
          "indexed": false,
          "internalType": "address",
          "name": "token",
          "type": "address"
        },
        {
          "indexed": false,
          "internalType": "uint256",
          "name": "amount",
          "type": "uint256"
        }
      ],
      "name": "ConsumeMarketFee",
      "type": "event"
    },
    {
      "anonymous": false,
      "inputs": [
        {
          "indexed": true,
          "internalType": "bytes32",
          "name": "exchangeId",
          "type": "bytes32"
        },
        {
          "indexed": true,
          "internalType": "address",
          "name": "exchangeOwner",
          "type": "address"
        }
      ],
      "name": "ExchangeActivated",
      "type": "event"
    },
    {
      "anonymous": false,
      "inputs": [
        {
          "indexed": true,
          "internalType": "bytes32",
          "name": "exchangeId",
          "type": "bytes32"
        },
        {
          "indexed": true,
          "internalType": "address",
          "name": "allowedSwapper",
          "type": "address"
        }
      ],
      "name": "ExchangeAllowedSwapperChanged",
      "type": "event"
    },
    {
      "anonymous": false,
      "inputs": [
        {
          "indexed": true,
          "internalType": "bytes32",
          "name": "exchangeId",
          "type": "bytes32"
        },
        {
          "indexed": true,
          "internalType": "address",
          "name": "baseToken",
          "type": "address"
        },
        {
          "indexed": true,
          "internalType": "address",
          "name": "datatoken",
          "type": "address"
        },
        {
          "indexed": false,
          "internalType": "address",
          "name": "exchangeOwner",
          "type": "address"
        },
        {
          "indexed": false,
          "internalType": "uint256",
          "name": "fixedRate",
          "type": "uint256"
        }
      ],
      "name": "ExchangeCreated",
      "type": "event"
    },
    {
      "anonymous": false,
      "inputs": [
        {
          "indexed": true,
          "internalType": "bytes32",
          "name": "exchangeId",
          "type": "bytes32"
        },
        {
          "indexed": true,
          "internalType": "address",
          "name": "exchangeOwner",
          "type": "address"
        }
      ],
      "name": "ExchangeDeactivated",
      "type": "event"
    },
    {
      "anonymous": false,
      "inputs": [
        {
          "indexed": true,
          "internalType": "bytes32",
          "name": "exchangeId",
          "type": "bytes32"
        },
        {
          "indexed": true,
          "internalType": "address",
          "name": "exchangeOwner",
          "type": "address"
        },
        {
          "indexed": false,
          "internalType": "bool",
          "name": "withMint",
          "type": "bool"
        }
      ],
      "name": "ExchangeMintStateChanged",
      "type": "event"
    },
    {
      "anonymous": false,
      "inputs": [
        {
          "indexed": true,
          "internalType": "bytes32",
          "name": "exchangeId",
          "type": "bytes32"
        },
        {
          "indexed": true,
          "internalType": "address",
          "name": "exchangeOwner",
          "type": "address"
        },
        {
          "indexed": false,
          "internalType": "uint256",
          "name": "newRate",
          "type": "uint256"
        }
      ],
      "name": "ExchangeRateChanged",
      "type": "event"
    },
    {
      "anonymous": false,
      "inputs": [
        {
          "indexed": true,
          "internalType": "bytes32",
          "name": "exchangeId",
          "type": "bytes32"
        },
        {
          "indexed": true,
          "internalType": "address",
          "name": "feeToken",
          "type": "address"
        },
        {
          "indexed": false,
          "internalType": "uint256",
          "name": "feeAmount",
          "type": "uint256"
        }
      ],
      "name": "MarketFeeCollected",
      "type": "event"
    },
    {
      "anonymous": false,
      "inputs": [
        {
          "indexed": true,
          "internalType": "bytes32",
          "name": "exchangeId",
          "type": "bytes32"
        },
        {
          "indexed": true,
          "internalType": "address",
          "name": "feeToken",
          "type": "address"
        },
        {
          "indexed": false,
          "internalType": "uint256",
          "name": "feeAmount",
          "type": "uint256"
        }
      ],
      "name": "OceanFeeCollected",
      "type": "event"
    },
    {
      "anonymous": false,
      "inputs": [
        {
          "indexed": true,
          "internalType": "bytes32",
          "name": "exchangeId",
          "type": "bytes32"
        },
        {
          "indexed": false,
          "internalType": "address",
          "name": "caller",
          "type": "address"
        },
        {
          "indexed": false,
          "internalType": "address",
          "name": "newMarketCollector",
          "type": "address"
        },
        {
          "indexed": false,
          "internalType": "uint256",
          "name": "swapFee",
          "type": "uint256"
        }
      ],
      "name": "PublishMarketFeeChanged",
      "type": "event"
    },
    {
      "anonymous": false,
      "inputs": [
        {
          "indexed": true,
          "internalType": "bytes32",
          "name": "exchangeId",
          "type": "bytes32"
        },
        {
          "indexed": false,
          "internalType": "uint256",
          "name": "oceanFeeAmount",
          "type": "uint256"
        },
        {
          "indexed": false,
          "internalType": "uint256",
          "name": "marketFeeAmount",
          "type": "uint256"
        },
        {
          "indexed": false,
          "internalType": "uint256",
          "name": "consumeMarketFeeAmount",
          "type": "uint256"
        },
        {
          "indexed": false,
          "internalType": "address",
          "name": "tokenFeeAddress",
          "type": "address"
        }
      ],
      "name": "SWAP_FEES",
      "type": "event"
    },
    {
      "anonymous": false,
      "inputs": [
        {
          "indexed": true,
          "internalType": "bytes32",
          "name": "exchangeId",
          "type": "bytes32"
        },
        {
          "indexed": true,
          "internalType": "address",
          "name": "by",
          "type": "address"
        },
        {
          "indexed": false,
          "internalType": "uint256",
          "name": "baseTokenSwappedAmount",
          "type": "uint256"
        },
        {
          "indexed": false,
          "internalType": "uint256",
          "name": "datatokenSwappedAmount",
          "type": "uint256"
        },
        {
          "indexed": false,
          "internalType": "address",
          "name": "tokenOutAddress",
          "type": "address"
        },
        {
          "indexed": false,
          "internalType": "uint256",
          "name": "marketFeeAmount",
          "type": "uint256"
        },
        {
          "indexed": false,
          "internalType": "uint256",
          "name": "oceanFeeAmount",
          "type": "uint256"
        },
        {
          "indexed": false,
          "internalType": "uint256",
          "name": "consumeMarketFeeAmount",
          "type": "uint256"
        }
      ],
      "name": "Swapped",
      "type": "event"
    },
    {
      "anonymous": false,
      "inputs": [
        {
          "indexed": true,
          "internalType": "bytes32",
          "name": "exchangeId",
          "type": "bytes32"
        },
        {
          "indexed": true,
          "internalType": "address",
          "name": "to",
          "type": "address"
        },
        {
          "indexed": true,
          "internalType": "address",
          "name": "token",
          "type": "address"
        },
        {
          "indexed": false,
          "internalType": "uint256",
          "name": "amount",
          "type": "uint256"
        }
      ],
      "name": "TokenCollected",
      "type": "event"
    },
    {
      "inputs": [],
      "name": "MAX_FEE",
      "outputs": [
        {
          "internalType": "uint256",
          "name": "",
          "type": "uint256"
        }
      ],
      "stateMutability": "view",
      "type": "function"
    },
    {
      "inputs": [],
      "name": "MIN_FEE",
      "outputs": [
        {
          "internalType": "uint256",
          "name": "",
          "type": "uint256"
        }
      ],
      "stateMutability": "view",
      "type": "function"
    },
    {
      "inputs": [],
      "name": "MIN_RATE",
      "outputs": [
        {
          "internalType": "uint256",
          "name": "",
          "type": "uint256"
        }
      ],
      "stateMutability": "view",
      "type": "function"
    },
    {
      "inputs": [
        {
          "internalType": "bytes32",
          "name": "exchangeId",
          "type": "bytes32"
        },
        {
          "internalType": "uint256",
          "name": "datatokenAmount",
          "type": "uint256"
        },
        {
          "internalType": "uint256",
          "name": "maxBaseTokenAmount",
          "type": "uint256"
        },
        {
          "internalType": "address",
          "name": "consumeMarketAddress",
          "type": "address"
        },
        {
          "internalType": "uint256",
          "name": "consumeMarketSwapFeeAmount",
          "type": "uint256"
        }
      ],
      "name": "buyDT",
      "outputs": [],
      "stateMutability": "nonpayable",
      "type": "function"
    },
    {
      "inputs": [
        {
          "internalType": "bytes32",
          "name": "exchangeId",
          "type": "bytes32"
        },
        {
          "internalType": "uint256",
          "name": "datatokenAmount",
          "type": "uint256"
        },
        {
          "internalType": "uint256",
          "name": "consumeMarketSwapFeeAmount",
          "type": "uint256"
        }
      ],
      "name": "calcBaseInGivenOutDT",
      "outputs": [
        {
          "internalType": "uint256",
          "name": "baseTokenAmount",
          "type": "uint256"
        },
        {
          "internalType": "uint256",
          "name": "oceanFeeAmount",
          "type": "uint256"
        },
        {
          "internalType": "uint256",
          "name": "publishMarketFeeAmount",
          "type": "uint256"
        },
        {
          "internalType": "uint256",
          "name": "consumeMarketFeeAmount",
          "type": "uint256"
        }
      ],
      "stateMutability": "view",
      "type": "function"
    },
    {
      "inputs": [
        {
          "internalType": "bytes32",
          "name": "exchangeId",
          "type": "bytes32"
        },
        {
          "internalType": "uint256",
          "name": "datatokenAmount",
          "type": "uint256"
        },
        {
          "internalType": "uint256",
          "name": "consumeMarketSwapFeeAmount",
          "type": "uint256"
        }
      ],
      "name": "calcBaseOutGivenInDT",
      "outputs": [
        {
          "internalType": "uint256",
          "name": "baseTokenAmount",
          "type": "uint256"
        },
        {
          "internalType": "uint256",
          "name": "oceanFeeAmount",
          "type": "uint256"
        },
        {
          "internalType": "uint256",
          "name": "publishMarketFeeAmount",
          "type": "uint256"
        },
        {
          "internalType": "uint256",
          "name": "consumeMarketFeeAmount",
          "type": "uint256"
        }
      ],
      "stateMutability": "view",
      "type": "function"
    },
    {
      "inputs": [
        {
          "internalType": "bytes32",
          "name": "exchangeId",
          "type": "bytes32"
        },
        {
          "internalType": "uint256",
          "name": "amount",
          "type": "uint256"
        }
      ],
      "name": "collectBT",
      "outputs": [],
      "stateMutability": "nonpayable",
      "type": "function"
    },
    {
      "inputs": [
        {
          "internalType": "bytes32",
          "name": "exchangeId",
          "type": "bytes32"
        },
        {
          "internalType": "uint256",
          "name": "amount",
          "type": "uint256"
        }
      ],
      "name": "collectDT",
      "outputs": [],
      "stateMutability": "nonpayable",
      "type": "function"
    },
    {
      "inputs": [
        {
          "internalType": "bytes32",
          "name": "exchangeId",
          "type": "bytes32"
        }
      ],
      "name": "collectMarketFee",
      "outputs": [],
      "stateMutability": "nonpayable",
      "type": "function"
    },
    {
      "inputs": [
        {
          "internalType": "bytes32",
          "name": "exchangeId",
          "type": "bytes32"
        }
      ],
      "name": "collectOceanFee",
      "outputs": [],
      "stateMutability": "nonpayable",
      "type": "function"
    },
    {
      "inputs": [
        {
          "internalType": "address",
          "name": "datatoken",
          "type": "address"
        },
        {
          "internalType": "address[]",
          "name": "addresses",
          "type": "address[]"
        },
        {
          "internalType": "uint256[]",
          "name": "uints",
          "type": "uint256[]"
        }
      ],
      "name": "createWithDecimals",
      "outputs": [
        {
          "internalType": "bytes32",
          "name": "exchangeId",
          "type": "bytes32"
        }
      ],
      "stateMutability": "nonpayable",
      "type": "function"
    },
    {
      "inputs": [
        {
          "internalType": "address",
          "name": "baseToken",
          "type": "address"
        },
        {
          "internalType": "address",
          "name": "datatoken",
          "type": "address"
        }
      ],
      "name": "generateExchangeId",
      "outputs": [
        {
          "internalType": "bytes32",
          "name": "",
          "type": "bytes32"
        }
      ],
      "stateMutability": "pure",
      "type": "function"
    },
    {
      "inputs": [
        {
          "internalType": "bytes32",
          "name": "exchangeId",
          "type": "bytes32"
        }
      ],
      "name": "getAllowedSwapper",
      "outputs": [
        {
          "internalType": "address",
          "name": "allowedSwapper",
          "type": "address"
        }
      ],
      "stateMutability": "view",
      "type": "function"
    },
    {
      "inputs": [
        {
          "internalType": "bytes32",
          "name": "exchangeId",
          "type": "bytes32"
        }
      ],
      "name": "getBTSupply",
      "outputs": [
        {
          "internalType": "uint256",
          "name": "supply",
          "type": "uint256"
        }
      ],
      "stateMutability": "view",
      "type": "function"
    },
    {
      "inputs": [
        {
          "internalType": "bytes32",
          "name": "exchangeId",
          "type": "bytes32"
        }
      ],
      "name": "getDTSupply",
      "outputs": [
        {
          "internalType": "uint256",
          "name": "supply",
          "type": "uint256"
        }
      ],
      "stateMutability": "view",
      "type": "function"
    },
    {
      "inputs": [
        {
          "internalType": "bytes32",
          "name": "exchangeId",
          "type": "bytes32"
        }
      ],
      "name": "getExchange",
      "outputs": [
        {
          "internalType": "address",
          "name": "exchangeOwner",
          "type": "address"
        },
        {
          "internalType": "address",
          "name": "datatoken",
          "type": "address"
        },
        {
          "internalType": "uint256",
          "name": "dtDecimals",
          "type": "uint256"
        },
        {
          "internalType": "address",
          "name": "baseToken",
          "type": "address"
        },
        {
          "internalType": "uint256",
          "name": "btDecimals",
          "type": "uint256"
        },
        {
          "internalType": "uint256",
          "name": "fixedRate",
          "type": "uint256"
        },
        {
          "internalType": "bool",
          "name": "active",
          "type": "bool"
        },
        {
          "internalType": "uint256",
          "name": "dtSupply",
          "type": "uint256"
        },
        {
          "internalType": "uint256",
          "name": "btSupply",
          "type": "uint256"
        },
        {
          "internalType": "uint256",
          "name": "dtBalance",
          "type": "uint256"
        },
        {
          "internalType": "uint256",
          "name": "btBalance",
          "type": "uint256"
        },
        {
          "internalType": "bool",
          "name": "withMint",
          "type": "bool"
        }
      ],
      "stateMutability": "view",
      "type": "function"
    },
    {
      "inputs": [],
      "name": "getExchanges",
      "outputs": [
        {
          "internalType": "bytes32[]",
          "name": "",
          "type": "bytes32[]"
        }
      ],
      "stateMutability": "view",
      "type": "function"
    },
    {
      "inputs": [
        {
          "internalType": "bytes32",
          "name": "exchangeId",
          "type": "bytes32"
        }
      ],
      "name": "getFeesInfo",
      "outputs": [
        {
          "internalType": "uint256",
          "name": "marketFee",
          "type": "uint256"
        },
        {
          "internalType": "address",
          "name": "marketFeeCollector",
          "type": "address"
        },
        {
          "internalType": "uint256",
          "name": "opcFee",
          "type": "uint256"
        },
        {
          "internalType": "uint256",
          "name": "marketFeeAvailable",
          "type": "uint256"
        },
        {
          "internalType": "uint256",
          "name": "oceanFeeAvailable",
          "type": "uint256"
        }
      ],
      "stateMutability": "view",
      "type": "function"
    },
    {
      "inputs": [],
      "name": "getId",
      "outputs": [
        {
          "internalType": "uint8",
          "name": "",
          "type": "uint8"
        }
      ],
      "stateMutability": "pure",
      "type": "function"
    },
    {
      "inputs": [
        {
          "internalType": "bytes32",
          "name": "exchangeId",
          "type": "bytes32"
        }
      ],
      "name": "getMarketFee",
      "outputs": [
        {
          "internalType": "uint256",
          "name": "",
          "type": "uint256"
        }
      ],
      "stateMutability": "view",
      "type": "function"
    },
    {
      "inputs": [],
      "name": "getNumberOfExchanges",
      "outputs": [
        {
          "internalType": "uint256",
          "name": "",
          "type": "uint256"
        }
      ],
      "stateMutability": "view",
      "type": "function"
    },
    {
      "inputs": [
        {
          "internalType": "address",
          "name": "baseTokenAddress",
          "type": "address"
        }
      ],
      "name": "getOPCFee",
      "outputs": [
        {
          "internalType": "uint256",
          "name": "",
          "type": "uint256"
        }
      ],
      "stateMutability": "view",
      "type": "function"
    },
    {
      "inputs": [
        {
          "internalType": "bytes32",
          "name": "exchangeId",
          "type": "bytes32"
        }
      ],
      "name": "getRate",
      "outputs": [
        {
          "internalType": "uint256",
          "name": "",
          "type": "uint256"
        }
      ],
      "stateMutability": "view",
      "type": "function"
    },
    {
      "inputs": [
        {
          "internalType": "bytes32",
          "name": "exchangeId",
          "type": "bytes32"
        }
      ],
      "name": "isActive",
      "outputs": [
        {
          "internalType": "bool",
          "name": "",
          "type": "bool"
        }
      ],
      "stateMutability": "view",
      "type": "function"
    },
    {
      "inputs": [],
      "name": "opcCollector",
      "outputs": [
        {
          "internalType": "address",
          "name": "",
          "type": "address"
        }
      ],
      "stateMutability": "view",
      "type": "function"
    },
    {
      "inputs": [],
      "name": "router",
      "outputs": [
        {
          "internalType": "address",
          "name": "",
          "type": "address"
        }
      ],
      "stateMutability": "view",
      "type": "function"
    },
    {
      "inputs": [
        {
          "internalType": "bytes32",
          "name": "exchangeId",
          "type": "bytes32"
        },
        {
          "internalType": "uint256",
          "name": "datatokenAmount",
          "type": "uint256"
        },
        {
          "internalType": "uint256",
          "name": "minBaseTokenAmount",
          "type": "uint256"
        },
        {
          "internalType": "address",
          "name": "consumeMarketAddress",
          "type": "address"
        },
        {
          "internalType": "uint256",
          "name": "consumeMarketSwapFeeAmount",
          "type": "uint256"
        }
      ],
      "name": "sellDT",
      "outputs": [],
      "stateMutability": "nonpayable",
      "type": "function"
    },
    {
      "inputs": [
        {
          "internalType": "bytes32",
          "name": "exchangeId",
          "type": "bytes32"
        },
        {
          "internalType": "address",
          "name": "newAllowedSwapper",
          "type": "address"
        }
      ],
      "name": "setAllowedSwapper",
      "outputs": [],
      "stateMutability": "nonpayable",
      "type": "function"
    },
    {
      "inputs": [
        {
          "internalType": "bytes32",
          "name": "exchangeId",
          "type": "bytes32"
        },
        {
          "internalType": "uint256",
          "name": "newRate",
          "type": "uint256"
        }
      ],
      "name": "setRate",
      "outputs": [],
      "stateMutability": "nonpayable",
      "type": "function"
    },
    {
      "inputs": [
        {
          "internalType": "bytes32",
          "name": "exchangeId",
          "type": "bytes32"
        }
      ],
      "name": "toggleExchangeState",
      "outputs": [],
      "stateMutability": "nonpayable",
      "type": "function"
    },
    {
      "inputs": [
        {
          "internalType": "bytes32",
          "name": "exchangeId",
          "type": "bytes32"
        },
        {
          "internalType": "bool",
          "name": "withMint",
          "type": "bool"
        }
      ],
      "name": "toggleMintState",
      "outputs": [],
      "stateMutability": "nonpayable",
      "type": "function"
    },
    {
      "inputs": [
        {
          "internalType": "bytes32",
          "name": "exchangeId",
          "type": "bytes32"
        },
        {
          "internalType": "uint256",
          "name": "_newMarketFee",
          "type": "uint256"
        }
      ],
      "name": "updateMarketFee",
      "outputs": [],
      "stateMutability": "nonpayable",
      "type": "function"
    },
    {
      "inputs": [
        {
          "internalType": "bytes32",
          "name": "exchangeId",
          "type": "bytes32"
        },
        {
          "internalType": "address",
          "name": "_newMarketCollector",
          "type": "address"
        }
      ],
      "name": "updateMarketFeeCollector",
      "outputs": [],
      "stateMutability": "nonpayable",
      "type": "function"
    }
  ],
  "bytecode": "0x60806040523480156200001157600080fd5b50604051620044ab380380620044ab833981016040819052620000349162000158565b60016000556001600160a01b038216620000a55760405162461bcd60e51b815260206004820152602760248201527f46697865645261746545786368616e67653a2057726f6e6720526f75746572206044820152666164647265737360c81b60648201526084015b60405180910390fd5b6001600160a01b038116620001095760405162461bcd60e51b8152602060048201526024808201527f46697865645261746545786368616e67653a2057726f6e67204f5043206164646044820152637265737360e01b60648201526084016200009c565b600180546001600160a01b039384166001600160a01b0319918216179091556002805492909316911617905562000190565b80516001600160a01b03811681146200015357600080fd5b919050565b600080604083850312156200016c57600080fd5b62000177836200013b565b915062000187602084016200013b565b90509250929050565b61430b80620001a06000396000f3fe608060405234801561001057600080fd5b50600436106101fb5760003560e01c80637c82ebe91161011a578063bc063e1a116100ad578063d819bfef1161007c578063d819bfef146105f6578063dd1bc96a14610602578063ed2fc85914610615578063f32f947614610628578063f887ea401461063b57600080fd5b8063bc063e1a1461058e578063c2c0d1ab1461059d578063c612e48a146105d0578063c66274ea146105e357600080fd5b8063b32b56f9116100e9578063b32b56f91461053c578063b424142914610560578063b686bcaf14610568578063b8421e2b1461057b57600080fd5b80637c82ebe91461041b578063855058dd1461042e57806385fcbc2f14610516578063888238721461052957600080fd5b80635acfedc711610192578063680819eb11610161578063680819eb146103da57806368c4b7e9146103ed57806376c7a3c71461040057806379dd28361461040857600080fd5b80635acfedc7146103725780635c36901c146103855780635d1ca631146103b857806360311e95146103c757600080fd5b806324cb477e116101ce57806324cb477e146102a95780632e7e23b3146102be5780634c87087d146102e157806350d571d51461035f57600080fd5b8063012c32751461020057806303814238146102265780630b3b430d146102515780631e2e3a6b14610294575b600080fd5b61021361020e366004613bf1565b61064e565b6040519081526020015b60405180910390f35b600254610239906001600160a01b031681565b6040516001600160a01b03909116815260200161021d565b61026461025f366004613cc7565b610fb2565b604080519586526001600160a01b039094166020860152928401919091526060830152608082015260a00161021d565b61029c6110bc565b60405161021d9190613ce0565b6102bc6102b7366004613cc7565b611114565b005b6102136102cc366004613cc7565b60009081526003602052604090206008015490565b6102f46102ef366004613cc7565b61133a565b604080516001600160a01b039d8e1681529b8d1660208d01528b0199909952999096166060890152608088019490945260a0870192909252151560c086015260e08501526101008401526101208301526101408201929092529015156101608201526101800161021d565b6102bc61036d366004613d24565b6113dd565b6102bc610380366004613cc7565b611915565b6103a8610393366004613cc7565b60009081526003602052604090205460ff1690565b604051901515815260200161021d565b6040516001815260200161021d565b6102bc6103d5366004613d6d565b61194e565b6102bc6103e8366004613d9d565b611b35565b6102bc6103fb366004613d24565b611d67565b610213612368565b6102bc610416366004613dcd565b61237f565b6102bc610429366004613d6d565b612589565b61023961043c366004613cc7565b60009081526003602081815260409283902083516101e081018552815460ff808216151583526001600160a01b03610100928390048116958401959095526001840154851696830196909652600283015484166060830152938201546080820152600482015460a0820152600582015460c0820152600682015460e0820152600782015484820152600882015461012082015260098201548316610140820152600a820154610160820152600b820154610180820152600c9091015493841615156101a0820152919092049091166101c090910181905290565b610213610524366004613cc7565b61265c565b6102bc610537366004613d9d565b6127e2565b61021361054a366004613cc7565b6000908152600360208190526040909120015490565b600454610213565b6102bc610576366004613cc7565b612947565b610213610589366004613df2565b612978565b6102136706f05b59d3b2000081565b6105b06105ab366004613e0f565b6129ed565b60408051948552602085019390935291830152606082015260800161021d565b6102bc6105de366004613d9d565b612b7e565b6102136105f1366004613cc7565b612bb9565b6102136402540be40081565b6105b0610610366004613e0f565b612ecb565b610213610623366004613e3b565b61302e565b6102bc610636366004613d9d565b613066565b600154610239906001600160a01b031681565b6001546000906001600160a01b031633146106b05760405162461bcd60e51b815260206004820152601e60248201527f46697865645261746545786368616e67653a206f6e6c7920726f75746572000060448201526064015b60405180910390fd5b6005825110156106f95760405162461bcd60e51b8152602060048201526014602482015273092dcecc2d8d2c840ead2dce8e640d8cadccee8d60631b60448201526064016106a7565b60048351101561074b5760405162461bcd60e51b815260206004820152601860248201527f496e76616c696420616464726573736573206c656e677468000000000000000060448201526064016106a7565b60006001600160a01b03168360008151811061076957610769613e69565b60200260200101516001600160a01b031614156107e45760405162461bcd60e51b815260206004820152603360248201527f46697865645261746545786368616e67653a20496e76616c69642062617365546044820152726f6b656e2c20207a65726f206164647265737360681b60648201526084016106a7565b6001600160a01b0384166108565760405162461bcd60e51b815260206004820152603360248201527f46697865645261746545786368616e67653a20496e76616c69642064617461746044820152726f6b656e2c20207a65726f206164647265737360681b60648201526084016106a7565b836001600160a01b03168360008151811061087357610873613e69565b60200260200101516001600160a01b031614156108f85760405162461bcd60e51b815260206004820152603760248201527f46697865645261746545786368616e67653a20496e76616c696420646174617460448201527f6f6b656e2c2020657175616c732062617365546f6b656e00000000000000000060648201526084016106a7565b6402540be4008260028151811061091157610911613e69565b6020026020010151101561097e5760405162461bcd60e51b815260206004820152602e60248201527f46697865645261746545786368616e67653a20496e76616c696420657863686160448201526d6e676520726174652076616c756560901b60648201526084016106a7565b6109a28360008151811061099457610994613e69565b60200260200101518561302e565b6000818152600360208190526040909120015490915015610a195760405162461bcd60e51b815260206004820152602b60248201527f46697865645261746545786368616e67653a2045786368616e676520616c726560448201526a616479206578697374732160a81b60648201526084016106a7565b60006001905082600481518110610a3257610a32613e69565b602002602001015160001415610a46575060005b604051806101e0016040528060011515815260200185600181518110610a6e57610a6e613e69565b60200260200101516001600160a01b03168152602001866001600160a01b0316815260200185600081518110610aa657610aa6613e69565b60200260200101516001600160a01b0316815260200184600281518110610acf57610acf613e69565b6020026020010151815260200184600181518110610aef57610aef613e69565b6020026020010151815260200184600081518110610b0f57610b0f613e69565b60200260200101518152602001600081526020016000815260200184600381518110610b3d57610b3d613e69565b6020026020010151815260200185600281518110610b5d57610b5d613e69565b60200260200101516001600160a01b031681526020016000815260200160008152602001821515815260200185600381518110610b9c57610b9c613e69565b6020908102919091018101516001600160a01b039081169092526000858152600380835260409182902085518154948701518616610100908102610100600160a81b031992151583166001600160a81b031997881617178355938701516001830180549188166001600160a01b0319928316179055606088015160028401805491891691831691909117905560808801518385015560a0880151600484015560c0880151600584015560e08801516006840155848801516007840155610120880151600884015561014088015160098401805491891691909216179055610160870151600a830155610180870151600b8301556101a0870151600c90920180546101c090980151909616909302901515909216949092169390931792909217905583518491908110610cd057610cd0613e69565b602002602001015160001480610d135750610cf5612710670de0b6b3a7640000613e95565b83600381518110610d0857610d08613e69565b602002602001015110155b610d515760405162461bcd60e51b815260206004820152600f60248201526e5377617046656520746f6f206c6f7760881b60448201526064016106a7565b6706f05b59d3b2000083600381518110610d6d57610d6d613e69565b60200260200101511115610db65760405162461bcd60e51b815260206004820152601060248201526f0a6eec2e08ccaca40e8dede40d0d2ced60831b60448201526064016106a7565b6004805460018101825560009182527f8a35acfbc15ff81a39ae7d344fd709f28e8600b4aa8c65c6b64bfe7fe36bd19b0183905584516001600160a01b038716918691610e0557610e05613e69565b60200260200101516001600160a01b0316837feb7a353641f7d3cc54b497ef1553fdc292b64d9cc3be8587c23dfba01f310b1987600181518110610e4b57610e4b613e69565b602002602001015187600281518110610e6657610e66613e69565b6020026020010151604051610e909291906001600160a01b03929092168252602082015260400190565b60405180910390a483600181518110610eab57610eab613e69565b60200260200101516001600160a01b0316827fc7344c45124818d1d3a4c24ccb9b86d8b88d3bd05209b2a42b494cb32a50352960405160405180910390a383600381518110610efc57610efc613e69565b60200260200101516001600160a01b0316827fcc1b4af8292e6b938f6743c78a62317c9a2d60e0d46b77776a027e53ce617c0c60405160405180910390a3817f1bf3af41af5ef4ea33bbeffb18acd246aae76d6f03bdb54916577c2e1ab03d523386600281518110610f7057610f70613e69565b602002602001015186600381518110610f8b57610f8b613e69565b6020026020010151604051610fa293929190613eb7565b60405180910390a2509392505050565b600081815260036020818152604080842081516101e081018352815460ff808216151583526001600160a01b036101009283900481168488015260018501548116958401959095526002840154851660608401819052848801546080850152600485015460a0850152600585015460c0850152600685015460e085015260078501548385015260088501546101208501819052600986015487166101408601819052600a870154610160870152600b870154610180870152600c9096015492831615156101a0860152929091049094166101c08301528787529490935292939182918291906110a090612978565b9350806101600151925080610180015191505091939590929450565b6060600480548060200260200160405190810160405280929190818152602001828054801561110a57602002820191906000526020600020905b8154815260200190600101908083116110f6575b5050505050905090565b600081815260036020526040908190206001015490516396fb3eaf60e01b815233600482015282916001600160a01b03169081906396fb3eaf90602401602060405180830381865afa15801561116e573d6000803e3d6000fd5b505050506040513d601f19601f820116820180604052508101906111929190613edb565b806112795750336001600160a01b0316816001600160a01b0316627ffb786040518163ffffffff1660e01b8152600401602060405180830381865afa1580156111df573d6000803e3d6000fd5b505050506040513d601f19601f820116820180604052508101906112039190613ef8565b6040516331a9108f60e11b8152600160048201526001600160a01b039190911690636352211e90602401602060405180830381865afa15801561124a573d6000803e3d6000fd5b505050506040513d601f19601f8201168201806040525081019061126e9190613ef8565b6001600160a01b0316145b6112955760405162461bcd60e51b81526004016106a790613f15565b60008381526003602052604090205460ff16156112f157600083815260036020526040808220805460ff1916905551339185917f03da9148e1de78fba22de63c573465562ebf6ef878a1d3ea83790a560229984c9190a3505050565b600083815260036020526040808220805460ff1916600117905551339185917fc7344c45124818d1d3a4c24ccb9b86d8b88d3bd05209b2a42b494cb32a5035299190a35b505050565b600081815260036020819052604082208054600182015460048301546002840154600585015494909501546001600160a01b0361010085048116979381169692959216939192909160ff1690808080806113938d612bb9565b945061139e8d61265c565b60009d8e5260036020526040909d2060068101546007820154600c909201549d9f9c9e9b9d9a9c999b989a9799969897909691955060ff169350915050565b600085815260036020526040902054859060ff1661140d5760405162461bcd60e51b81526004016106a790613f5e565b600260005414156114305760405162461bcd60e51b81526004016106a790613fa9565b6002600055846114525760405162461bcd60e51b81526004016106a790613fe0565b811580611472575061146e612710670de0b6b3a7640000613e95565b8210155b6114b75760405162461bcd60e51b8152602060048201526016602482015275436f6e73756d655377617046656520746f6f206c6f7760501b60448201526064016106a7565b6706f05b59d3b200008211156115095760405162461bcd60e51b8152602060048201526017602482015276086dedce6eadacaa6eec2e08ccaca40e8dede40d0d2ced604b1b60448201526064016106a7565b6000868152600360205260409020600c015461010090046001600160a01b03161561156c576000868152600360205260409020600c015461010090046001600160a01b0316331461156c5760405162461bcd60e51b81526004016106a790614028565b6040805160808101825260008082526020820181905291810182905260608101919091526001600160a01b0384166115a357600092505b6115ae8787856129ed565b60608501526040840152602083015280825285111561161e5760405162461bcd60e51b815260206004820152602660248201527f46697865645261746545786368616e67653a20546f6f20666577206261736520604482015265746f6b656e7360d01b60648201526084016106a7565b602080820151600089815260039092526040909120600b015461164091613098565b60008881526003602052604090819020600b810192909255820151600a9091015461166a91613098565b60036000898152602001908152602001600020600a018190555060006116b782606001516116b184604001516116b18660200151876000015161309890919063ffffffff16565b90613098565b6000898152600360205260409020600101549091506116e1906001600160a01b031633308a6130ab565b6000888152600360205260409020600601546116fd9088613098565b600089815260036020526040902060068101919091556007015481111561178057600088815260036020526040902060028101549054611750916001600160a01b039081169161010090041630846130ab565b815160008981526003602052604090206002015461177b916001600160a01b039091169033906131f9565b6117d1565b60008881526003602052604090206007015461179c908261325c565b6000898152600360205260409020600781019190915582516002909101546117d1916001600160a01b039091169033906131f9565b6001600160a01b038516158015906117ed575060008260600151115b15611880576060820151600089815260036020526040902060020154611820916001600160a01b039091169087906131f9565b6000888152600360205260409081902060020154606084015191518a927f086a8edf7ac99098be3ce56ba76ae3e5a1e212fed5f803fc3167990fa03079b992611877928a926001600160a01b039092169190613eb7565b60405180910390a25b815160008981526003602090815260409182902060020154828601518287015160608089015186519788529487018e90526001600160a01b039093169486019490945290840152608083019190915260a0820152339089907f7b072645ce5b6a2fc627a544edee544b786747cafd1bb8f0e3238aa5f2e806469060c0015b60405180910390a350506001600055505050505050565b600260005414156119385760405162461bcd60e51b81526004016106a790613fa9565b600260005561194681613268565b506001600055565b600082815260036020526040908190206001015490516396fb3eaf60e01b815233600482015283916001600160a01b03169081906396fb3eaf90602401602060405180830381865afa1580156119a8573d6000803e3d6000fd5b505050506040513d601f19601f820116820180604052508101906119cc9190613edb565b80611ab35750336001600160a01b0316816001600160a01b0316627ffb786040518163ffffffff1660e01b8152600401602060405180830381865afa158015611a19573d6000803e3d6000fd5b505050506040513d601f19601f82011682018060405250810190611a3d9190613ef8565b6040516331a9108f60e11b8152600160048201526001600160a01b039190911690636352211e90602401602060405180830381865afa158015611a84573d6000803e3d6000fd5b505050506040513d601f19601f82011682018060405250810190611aa89190613ef8565b6001600160a01b0316145b611acf5760405162461bcd60e51b81526004016106a790613f15565b600084815260036020526040808220600c018054610100600160a81b0319166101006001600160a01b038816908102919091179091559051909186917fcc1b4af8292e6b938f6743c78a62317c9a2d60e0d46b77776a027e53ce617c0c9190a350505050565b600082815260036020526040908190206001015490516396fb3eaf60e01b815233600482015283916001600160a01b03169081906396fb3eaf90602401602060405180830381865afa158015611b8f573d6000803e3d6000fd5b505050506040513d601f19601f82011682018060405250810190611bb39190613edb565b80611c9a5750336001600160a01b0316816001600160a01b0316627ffb786040518163ffffffff1660e01b8152600401602060405180830381865afa158015611c00573d6000803e3d6000fd5b505050506040513d601f19601f82011682018060405250810190611c249190613ef8565b6040516331a9108f60e11b8152600160048201526001600160a01b039190911690636352211e90602401602060405180830381865afa158015611c6b573d6000803e3d6000fd5b505050506040513d601f19601f82011682018060405250810190611c8f9190613ef8565b6001600160a01b0316145b611cb65760405162461bcd60e51b81526004016106a790613f15565b82611d0f5760405162461bcd60e51b815260206004820152602360248201527f46697865645261746545786368616e67653a20526174696f206d7573742062656044820152620203e360ec1b60648201526084016106a7565b6000848152600360208190526040918290200184905551339085907fe50f9919fdc524004a4ee0cb934f4734f144bec0713a52e5483b753f5de0f08c90611d599087815260200190565b60405180910390a350505050565b600085815260036020526040902054859060ff16611d975760405162461bcd60e51b81526004016106a790613f5e565b60026000541415611dba5760405162461bcd60e51b81526004016106a790613fa9565b600260005584611ddc5760405162461bcd60e51b81526004016106a790613fe0565b811580611dfc5750611df8612710670de0b6b3a7640000613e95565b8210155b611e415760405162461bcd60e51b8152602060048201526016602482015275436f6e73756d655377617046656520746f6f206c6f7760501b60448201526064016106a7565b6706f05b59d3b20000821115611e935760405162461bcd60e51b8152602060048201526017602482015276086dedce6eadacaa6eec2e08ccaca40e8dede40d0d2ced604b1b60448201526064016106a7565b6000868152600360205260409020600c015461010090046001600160a01b031615611ef6576000868152600360205260409020600c015461010090046001600160a01b03163314611ef65760405162461bcd60e51b81526004016106a790614028565b6001600160a01b038316611f0957600091505b6000604051806080016040528060008152602001600081526020016000815260200160008152509050611f3d878785612ecb565b606085015260408401526020830152808252851015611fae5760405162461bcd60e51b815260206004820152602760248201527f46697865645261746545786368616e67653a20546f6f206d616e79206261736560448201526620746f6b656e7360c81b60648201526084016106a7565b602080820151600089815260039092526040909120600b0154611fd091613098565b60008881526003602052604090819020600b810192909255820151600a90910154611ffa91613098565b6000888152600360205260409020600a81019190915560020154815161202d916001600160a01b031690339030906130ab565b6000612060826060015161205a846040015161205a8660200151876000015161325c90919063ffffffff16565b9061325c565b60008981526003602052604090206007015490915061207f9082613098565b60008981526003602052604090206007810191909155600601548711156121ed576000888152600360205260409020600c015460ff1680156121385750600088815260036020526040908190206001015490516355138f0d60e11b81523060048201526001600160a01b039091169063aa271e1a90602401602060405180830381865afa158015612114573d6000803e3d6000fd5b505050506040513d601f19601f820116820180604052508101906121389190613edb565b156121b657600088815260036020526040908190206001015490516340c10f1960e01b8152336004820152602481018990526001600160a01b03909116906340c10f1990604401600060405180830381600087803b15801561219957600080fd5b505af11580156121ad573d6000803e3d6000fd5b50505050612237565b6000888152600360205260409020600181015490546121e8916001600160a01b0390811691610100900416338a6130ab565b612237565b600088815260036020526040902060060154612209908861325c565b6000898152600360205260409020600681019190915560010154612237906001600160a01b031633896131f9565b6001600160a01b03851615801590612253575060008260600151115b156122e6576060820151600089815260036020526040902060020154612286916001600160a01b039091169087906131f9565b6000888152600360205260409081902060020154606084015191518a927f086a8edf7ac99098be3ce56ba76ae3e5a1e212fed5f803fc3167990fa03079b9926122dd928a926001600160a01b039092169190613eb7565b60405180910390a25b815160008981526003602090815260409182902060010154828601518287015160608089015186519788529487018e90526001600160a01b039093169486019490945290840152608083019190915260a0820152339089907f7b072645ce5b6a2fc627a544edee544b786747cafd1bb8f0e3238aa5f2e806469060c0016118fe565b61237c612710670de0b6b3a7640000613e95565b81565b600082815260036020526040908190206001015490516396fb3eaf60e01b815233600482015283916001600160a01b03169081906396fb3eaf90602401602060405180830381865afa1580156123d9573d6000803e3d6000fd5b505050506040513d601f19601f820116820180604052508101906123fd9190613edb565b806124e45750336001600160a01b0316816001600160a01b0316627ffb786040518163ffffffff1660e01b8152600401602060405180830381865afa15801561244a573d6000803e3d6000fd5b505050506040513d601f19601f8201168201806040525081019061246e9190613ef8565b6040516331a9108f60e11b8152600160048201526001600160a01b039190911690636352211e90602401602060405180830381865afa1580156124b5573d6000803e3d6000fd5b505050506040513d601f19601f820116820180604052508101906124d99190613ef8565b6001600160a01b0316145b6125005760405162461bcd60e51b81526004016106a790613f15565b60008481526003602052604090208054600190910154612532916001600160a01b0361010090910481169116856132f6565b600085815260036020908152604091829020600c01805460ff191693151593909317909255518415158152339186917fe28e899e0f5d6fba0c8d73d1888083bcc62d4d9806d2e26fcf1f607c3ed52f539101611d59565b6000828152600360205260409020600901546001600160a01b031633146125eb5760405162461bcd60e51b81526020600482015260166024820152753737ba1036b0b935b2ba2332b2a1b7b63632b1ba37b960511b60448201526064016106a7565b600082815260036020526040908190206009810180546001600160a01b0319166001600160a01b03851617905560080154905183917f1bf3af41af5ef4ea33bbeffb18acd246aae76d6f03bdb54916577c2e1ab03d5291612650913391869190613eb7565b60405180910390a25050565b60008181526003602052604081205460ff1661267a57506000919050565b6000828152600360205260408082206002810154905491516370a0823160e01b81526101009092046001600160a01b03908116600484015216906370a0823190602401602060405180830381865afa1580156126da573d6000803e3d6000fd5b505050506040513d601f19601f820116820180604052508101906126fe919061407e565b600084815260036020526040808220600281015490549151636eb1769f60e11b81526001600160a01b0361010090930483166004820152306024820152939450919291169063dd62ed3e90604401602060405180830381865afa158015612769573d6000803e3d6000fd5b505050506040513d601f19601f8201168201806040525081019061278d919061407e565b9050808210156127bb576000848152600360205260409020600701546127b4908390613098565b92506127db565b6000848152600360205260409020600701546127d8908290613098565b92505b5050919050565b6000828152600360205260409020600901546001600160a01b031633146128445760405162461bcd60e51b81526020600482015260166024820152753737ba1036b0b935b2ba2332b2a1b7b63632b1ba37b960511b60448201526064016106a7565b8015806128645750612860612710670de0b6b3a7640000613e95565b8110155b6128a25760405162461bcd60e51b815260206004820152600f60248201526e5377617046656520746f6f206c6f7760881b60448201526064016106a7565b6706f05b59d3b200008111156128ed5760405162461bcd60e51b815260206004820152601060248201526f0a6eec2e08ccaca40e8dede40d0d2ced60831b60448201526064016106a7565b600082815260036020526040908190206008810183905560090154905183917f1bf3af41af5ef4ea33bbeffb18acd246aae76d6f03bdb54916577c2e1ab03d52916126509133916001600160a01b03909116908690613eb7565b6002600054141561296a5760405162461bcd60e51b81526004016106a790613fa9565b60026000556119468161348e565b60015460405163b8421e2b60e01b81526001600160a01b038381166004830152600092169063b8421e2b90602401602060405180830381865afa1580156129c3573d6000803e3d6000fd5b505050506040513d601f19601f820116820180604052508101906129e7919061407e565b92915050565b600083815260036020526040812054819081908190879060ff16612a235760405162461bcd60e51b81526004016106a790613f5e565b6000612a2f8989613518565b6040805160808101825260008082526020808301829052828401829052606083018290528d8252600390529182206002015492935091612a77906001600160a01b0316612978565b90508015612aa557612a9b670de0b6b3a7640000612a958584613588565b90613594565b6020830152612aad565b600060208301525b60008b81526003602052604090206008015415612af95760008b815260036020526040902060080154612aef90670de0b6b3a764000090612a95908690613588565b6040830152612b01565b600060408301525b8815612b2757612b1d670de0b6b3a7640000612a95858c613588565b6060830152612b2f565b600060608301525b612b56826060015161205a846020015161205a86604001518861325c90919063ffffffff16565b80835260208301516040840151606090940151919d909c50929a509850909650505050505050565b60026000541415612ba15760405162461bcd60e51b81526004016106a790613fa9565b6002600055612bb082826135a0565b50506001600055565b60008181526003602052604081205460ff16612bd757506000919050565b6000828152600360205260409020600c015460ff168015612c6f5750600082815260036020526040908190206001015490516355138f0d60e11b81523060048201526001600160a01b039091169063aa271e1a90602401602060405180830381865afa158015612c4b573d6000803e3d6000fd5b505050506040513d601f19601f82011682018060405250810190612c6f9190613edb565b15612d74576000828152600360209081526040918290206001015482516318160ddd60e01b815292516001600160a01b03909116926318160ddd9260048083019391928290030181865afa158015612ccb573d6000803e3d6000fd5b505050506040513d601f19601f82011682018060405250810190612cef919061407e565b600083815260036020908152604091829020600101548251631aa93a7560e11b815292516001600160a01b039091169263355274ea9260048083019391928290030181865afa158015612d46573d6000803e3d6000fd5b505050506040513d601f19601f82011682018060405250810190612d6a919061407e565b6129e79190614097565b6000828152600360205260408082206001810154905491516370a0823160e01b81526101009092046001600160a01b03908116600484015216906370a0823190602401602060405180830381865afa158015612dd4573d6000803e3d6000fd5b505050506040513d601f19601f82011682018060405250810190612df8919061407e565b600084815260036020526040808220600181015490549151636eb1769f60e11b81526001600160a01b0361010090930483166004820152306024820152939450919291169063dd62ed3e90604401602060405180830381865afa158015612e63573d6000803e3d6000fd5b505050506040513d601f19601f82011682018060405250810190612e87919061407e565b905080821015612eae576000848152600360205260409020600601546127b4908390613098565b6000848152600360205260409020600601546127d8908290613098565b600083815260036020526040812054819081908190879060ff16612f015760405162461bcd60e51b81526004016106a790613f5e565b6000612f0d8989613518565b6040805160808101825260008082526020808301829052828401829052606083018290528d8252600390529182206002015492935091612f55906001600160a01b0316612978565b90508015612f7d57612f73670de0b6b3a7640000612a958584613588565b6020830152612f85565b600060208301525b60008b81526003602052604090206008015415612fd15760008b815260036020526040902060080154612fc790670de0b6b3a764000090612a95908690613588565b6040830152612fd9565b600060408301525b8815612fff57612ff5670de0b6b3a7640000612a95858c613588565b6060830152613007565b600060608301525b612b5682606001516116b184602001516116b186604001518861309890919063ffffffff16565b604080516001600160a01b03938416602080830191909152929093168382015280518084038201815260609093019052815191012090565b600260005414156130895760405162461bcd60e51b81526004016106a790613fa9565b6002600055612bb08282613719565b60006130a482846140ae565b9392505050565b6040516370a0823160e01b81526001600160a01b038381166004830152600091908616906370a0823190602401602060405180830381865afa1580156130f5573d6000803e3d6000fd5b505050506040513d601f19601f82011682018060405250810190613119919061407e565b90506131306001600160a01b038616858585613892565b61313a8183613098565b6040516370a0823160e01b81526001600160a01b0385811660048301528716906370a0823190602401602060405180830381865afa158015613180573d6000803e3d6000fd5b505050506040513d601f19601f820116820180604052508101906131a4919061407e565b10156131f25760405162461bcd60e51b815260206004820152601a60248201527f5472616e7366657220616d6f756e7420697320746f6f206c6f7700000000000060448201526064016106a7565b5050505050565b6040516001600160a01b03831660248201526044810182905261133590849063a9059cbb60e01b906064015b60408051601f198184030181529190526020810180516001600160e01b03166001600160e01b0319909316929092179091526138b9565b60006130a48284614097565b6000818152600360205260408120600b810180549290556002805491015461329d916001600160a01b039182169116836131f9565b6000828152600360209081526040918290206002015491518381526001600160a01b039092169184917f457b44fd47c33fc65bfbd58d0202ad97fbed1bbc9881f56441d05fe9ebd58acf91015b60405180910390a35050565b600081613305575060006130a4565b6000836001600160a01b0316627ffb786040518163ffffffff1660e01b8152600401602060405180830381865afa158015613344573d6000803e3d6000fd5b505050506040513d601f19601f820116820180604052508101906133689190613ef8565b60405163160a792560e01b81526001600160a01b03878116600483015291925060009183169063160a792590602401608060405180830381865afa1580156133b4573d6000803e3d6000fd5b505050506040513d601f19601f820116820180604052508101906133d891906140c6565b80519091501515600114806133f35750602081015115156001145b8061347257506040516331a9108f60e11b8152600160048201526001600160a01b038088169190841690636352211e90602401602060405180830381865afa158015613443573d6000803e3d6000fd5b505050506040513d601f19601f820116820180604052508101906134679190613ef8565b6001600160a01b0316145b15613482576001925050506130a4565b50600095945050505050565b6000818152600360205260408120600a8101805492905560098101546002909101546134c7916001600160a01b039182169116836131f9565b6000828152600360209081526040918290206002015491518381526001600160a01b039092169184917f192a3cd95e40313e0e12c28b398e31633936e38d134419161f883c8d6407905591016132ea565b6000828152600360205260408120600401546130a490670de0b6b3a764000090612a959061354790600a61422f565b600087815260036020526040902060050154612a959061356890600a61422f565b60008981526003602081905260409091200154613586908990613588565b905b60006130a4828461423b565b60006130a48284613e95565b6000828152600360205260409020600601548111156135f35760405162461bcd60e51b815260206004820152600f60248201526e082dadeeadce840e8dede40d0d2ced608b1b60448201526064016106a7565b6000828152600360209081526040808320600101548151631c90f85d60e31b815291516001600160a01b039091169263e487c2e892600480820193918290030181865afa158015613648573d6000803e3d6000fd5b505050506040513d601f19601f8201168201806040525081019061366c9190613ef8565b60008481526003602052604090206006015490915061368b908361325c565b60008481526003602052604090819020600681019290925560019091015490516001600160a01b039182169183169085907fecc75f4464886bee0a1c5eae61c0cb4b99c64c5e9cdebe3696217d266f8b1636906136eb9087815260200190565b60405180910390a4600083815260036020526040902060010154611335906001600160a01b031682846131f9565b60008281526003602052604090206007015481111561376c5760405162461bcd60e51b815260206004820152600f60248201526e082dadeeadce840e8dede40d0d2ced608b1b60448201526064016106a7565b6000828152600360209081526040808320600101548151631c90f85d60e31b815291516001600160a01b039091169263e487c2e892600480820193918290030181865afa1580156137c1573d6000803e3d6000fd5b505050506040513d601f19601f820116820180604052508101906137e59190613ef8565b600084815260036020526040902060070154909150613804908361325c565b60008481526003602052604090819020600781019290925560029091015490516001600160a01b039182169183169085907fecc75f4464886bee0a1c5eae61c0cb4b99c64c5e9cdebe3696217d266f8b1636906138649087815260200190565b60405180910390a4600083815260036020526040902060020154611335906001600160a01b031682846131f9565b6138b3846323b872dd60e01b85858560405160240161322593929190613eb7565b50505050565b600061390e826040518060400160405280602081526020017f5361666545524332303a206c6f772d6c6576656c2063616c6c206661696c6564815250856001600160a01b031661398b9092919063ffffffff16565b805190915015611335578080602001905181019061392c9190613edb565b6113355760405162461bcd60e51b815260206004820152602a60248201527f5361666545524332303a204552433230206f7065726174696f6e20646964206e6044820152691bdd081cdd58d8d9595960b21b60648201526084016106a7565b606061399a84846000856139a2565b949350505050565b606082471015613a035760405162461bcd60e51b815260206004820152602660248201527f416464726573733a20696e73756666696369656e742062616c616e636520666f6044820152651c8818d85b1b60d21b60648201526084016106a7565b843b613a515760405162461bcd60e51b815260206004820152601d60248201527f416464726573733a2063616c6c20746f206e6f6e2d636f6e747261637400000060448201526064016106a7565b600080866001600160a01b03168587604051613a6d9190614286565b60006040518083038185875af1925050503d8060008114613aaa576040519150601f19603f3d011682016040523d82523d6000602084013e613aaf565b606091505b5091509150613abf828286613aca565b979650505050505050565b60608315613ad95750816130a4565b825115613ae95782518084602001fd5b8160405162461bcd60e51b81526004016106a791906142a2565b6001600160a01b0381168114613b1857600080fd5b50565b634e487b7160e01b600052604160045260246000fd5b604051601f8201601f1916810167ffffffffffffffff81118282101715613b5a57613b5a613b1b565b604052919050565b600067ffffffffffffffff821115613b7c57613b7c613b1b565b5060051b60200190565b600082601f830112613b9757600080fd5b81356020613bac613ba783613b62565b613b31565b82815260059290921b84018101918181019086841115613bcb57600080fd5b8286015b84811015613be65780358352918301918301613bcf565b509695505050505050565b600080600060608486031215613c0657600080fd5b8335613c1181613b03565b925060208481013567ffffffffffffffff80821115613c2f57600080fd5b818701915087601f830112613c4357600080fd5b8135613c51613ba782613b62565b81815260059190911b8301840190848101908a831115613c7057600080fd5b938501935b82851015613c97578435613c8881613b03565b82529385019390850190613c75565b965050506040870135925080831115613caf57600080fd5b5050613cbd86828701613b86565b9150509250925092565b600060208284031215613cd957600080fd5b5035919050565b6020808252825182820181905260009190848201906040850190845b81811015613d1857835183529284019291840191600101613cfc565b50909695505050505050565b600080600080600060a08688031215613d3c57600080fd5b8535945060208601359350604086013592506060860135613d5c81613b03565b949793965091946080013592915050565b60008060408385031215613d8057600080fd5b823591506020830135613d9281613b03565b809150509250929050565b60008060408385031215613db057600080fd5b50508035926020909101359150565b8015158114613b1857600080fd5b60008060408385031215613de057600080fd5b823591506020830135613d9281613dbf565b600060208284031215613e0457600080fd5b81356130a481613b03565b600080600060608486031215613e2457600080fd5b505081359360208301359350604090920135919050565b60008060408385031215613e4e57600080fd5b8235613e5981613b03565b91506020830135613d9281613b03565b634e487b7160e01b600052603260045260246000fd5b634e487b7160e01b600052601160045260246000fd5b600082613eb257634e487b7160e01b600052601260045260246000fd5b500490565b6001600160a01b039384168152919092166020820152604081019190915260600190565b600060208284031215613eed57600080fd5b81516130a481613dbf565b600060208284031215613f0a57600080fd5b81516130a481613b03565b60208082526029908201527f46697865645261746545786368616e67653a20696e76616c69642065786368616040820152683733b29037bbb732b960b91b606082015260800190565b6020808252602b908201527f46697865645261746545786368616e67653a2045786368616e676520646f657360408201526a206e6f742065786973742160a81b606082015260800190565b6020808252601f908201527f5265656e7472616e637947756172643a207265656e7472616e742063616c6c00604082015260600190565b60208082526028908201527f46697865645261746545786368616e67653a207a65726f2064617461746f6b656040820152671b88185b5bdd5b9d60c21b606082015260800190565b60208082526036908201527f46697865645261746545786368616e67653a205468697320616464726573732060408201527506973206e6f7420616c6c6f77656420746f20737761760541b606082015260800190565b60006020828403121561409057600080fd5b5051919050565b6000828210156140a9576140a9613e7f565b500390565b600082198211156140c1576140c1613e7f565b500190565b6000608082840312156140d857600080fd5b6040516080810181811067ffffffffffffffff821117156140fb576140fb613b1b565b604052825161410981613dbf565b8152602083015161411981613dbf565b6020820152604083015161412c81613dbf565b6040820152606083015161413f81613dbf565b60608201529392505050565b600181815b8085111561418657816000190482111561416c5761416c613e7f565b8085161561417957918102915b93841c9390800290614150565b509250929050565b60008261419d575060016129e7565b816141aa575060006129e7565b81600181146141c057600281146141ca576141e6565b60019150506129e7565b60ff8411156141db576141db613e7f565b50506001821b6129e7565b5060208310610133831016604e8410600b8410161715614209575081810a6129e7565b614213838361414b565b806000190482111561422757614227613e7f565b029392505050565b60006130a4838361418e565b600081600019048311821515161561425557614255613e7f565b500290565b60005b8381101561427557818101518382015260200161425d565b838111156138b35750506000910152565b6000825161429881846020870161425a565b9190910192915050565b60208152600082518060208401526142c181604085016020870161425a565b601f01601f1916919091016040019291505056fea26469706673582212209df06b589741889706ab36fdc64877b06db9fb3913cf46a4fd09526a2bdcdb4c64736f6c634300080c0033",
  "linkReferences": {},
  "deployedLinkReferences": {}
}